{
  "contractName": "Exchange",
  "abi": [
    {
      "inputs": [
        {
          "internalType": "address",
          "name": "_feeAccount",
          "type": "address"
        },
        {
          "internalType": "uint256",
          "name": "_feePercent",
          "type": "uint256"
        }
      ],
      "stateMutability": "nonpayable",
      "type": "constructor"
    },
    {
      "anonymous": false,
      "inputs": [
        {
          "indexed": false,
          "internalType": "uint256",
          "name": "id",
          "type": "uint256"
        },
        {
          "indexed": false,
          "internalType": "address",
          "name": "user",
          "type": "address"
        },
        {
          "indexed": false,
          "internalType": "address",
          "name": "tokenGet",
          "type": "address"
        },
        {
          "indexed": false,
          "internalType": "uint256",
          "name": "amountGet",
          "type": "uint256"
        },
        {
          "indexed": false,
          "internalType": "address",
          "name": "tokenGive",
          "type": "address"
        },
        {
          "indexed": false,
          "internalType": "uint256",
          "name": "amountGive",
          "type": "uint256"
        },
        {
          "indexed": false,
          "internalType": "uint256",
          "name": "timestamp",
          "type": "uint256"
        }
      ],
      "name": "Cancel",
      "type": "event"
    },
    {
      "anonymous": false,
      "inputs": [
        {
          "indexed": false,
          "internalType": "address",
          "name": "token",
          "type": "address"
        },
        {
          "indexed": false,
          "internalType": "address",
          "name": "user",
          "type": "address"
        },
        {
          "indexed": false,
          "internalType": "uint256",
          "name": "amount",
          "type": "uint256"
        },
        {
          "indexed": false,
          "internalType": "uint256",
          "name": "balance",
          "type": "uint256"
        }
      ],
      "name": "Deposit",
      "type": "event"
    },
    {
      "anonymous": false,
      "inputs": [
        {
          "indexed": false,
          "internalType": "uint256",
          "name": "id",
          "type": "uint256"
        },
        {
          "indexed": false,
          "internalType": "address",
          "name": "user",
          "type": "address"
        },
        {
          "indexed": false,
          "internalType": "address",
          "name": "tokenGet",
          "type": "address"
        },
        {
          "indexed": false,
          "internalType": "uint256",
          "name": "amountGet",
          "type": "uint256"
        },
        {
          "indexed": false,
          "internalType": "address",
          "name": "tokenGive",
          "type": "address"
        },
        {
          "indexed": false,
          "internalType": "uint256",
          "name": "amountGive",
          "type": "uint256"
        },
        {
          "indexed": false,
          "internalType": "uint256",
          "name": "timestamp",
          "type": "uint256"
        }
      ],
      "name": "Order",
      "type": "event"
    },
    {
      "anonymous": false,
      "inputs": [
        {
          "indexed": false,
          "internalType": "uint256",
          "name": "id",
          "type": "uint256"
        },
        {
          "indexed": false,
          "internalType": "address",
          "name": "user",
          "type": "address"
        },
        {
          "indexed": false,
          "internalType": "address",
          "name": "tokenGet",
          "type": "address"
        },
        {
          "indexed": false,
          "internalType": "uint256",
          "name": "amountGet",
          "type": "uint256"
        },
        {
          "indexed": false,
          "internalType": "address",
          "name": "tokenGive",
          "type": "address"
        },
        {
          "indexed": false,
          "internalType": "uint256",
          "name": "amountGive",
          "type": "uint256"
        },
        {
          "indexed": false,
          "internalType": "uint256",
          "name": "timestamp",
          "type": "uint256"
        }
      ],
      "name": "Trade",
      "type": "event"
    },
    {
      "anonymous": false,
      "inputs": [
        {
          "indexed": false,
          "internalType": "address",
          "name": "token",
          "type": "address"
        },
        {
          "indexed": false,
          "internalType": "address",
          "name": "user",
          "type": "address"
        },
        {
          "indexed": false,
          "internalType": "uint256",
          "name": "amount",
          "type": "uint256"
        },
        {
          "indexed": false,
          "internalType": "uint256",
          "name": "balance",
          "type": "uint256"
        }
      ],
      "name": "Withdraw",
      "type": "event"
    },
    {
      "inputs": [],
      "name": "feeAccount",
      "outputs": [
        {
          "internalType": "address",
          "name": "",
          "type": "address"
        }
      ],
      "stateMutability": "view",
      "type": "function",
      "constant": true
    },
    {
      "inputs": [],
      "name": "feePercent",
      "outputs": [
        {
          "internalType": "uint256",
          "name": "",
          "type": "uint256"
        }
      ],
      "stateMutability": "view",
      "type": "function",
      "constant": true
    },
    {
      "inputs": [
        {
          "internalType": "uint256",
          "name": "",
          "type": "uint256"
        }
      ],
      "name": "orderCancel",
      "outputs": [
        {
          "internalType": "bool",
          "name": "",
          "type": "bool"
        }
      ],
      "stateMutability": "view",
      "type": "function",
      "constant": true
    },
    {
      "inputs": [],
      "name": "orderCount",
      "outputs": [
        {
          "internalType": "uint256",
          "name": "",
          "type": "uint256"
        }
      ],
      "stateMutability": "view",
      "type": "function",
      "constant": true
    },
    {
      "inputs": [
        {
          "internalType": "uint256",
          "name": "",
          "type": "uint256"
        }
      ],
      "name": "orderFill",
      "outputs": [
        {
          "internalType": "bool",
          "name": "",
          "type": "bool"
        }
      ],
      "stateMutability": "view",
      "type": "function",
      "constant": true
    },
    {
      "inputs": [
        {
          "internalType": "uint256",
          "name": "",
          "type": "uint256"
        }
      ],
      "name": "orders",
      "outputs": [
        {
          "internalType": "uint256",
          "name": "id",
          "type": "uint256"
        },
        {
          "internalType": "address",
          "name": "user",
          "type": "address"
        },
        {
          "internalType": "address",
          "name": "tokenGet",
          "type": "address"
        },
        {
          "internalType": "uint256",
          "name": "amountGet",
          "type": "uint256"
        },
        {
          "internalType": "address",
          "name": "tokenGive",
          "type": "address"
        },
        {
          "internalType": "uint256",
          "name": "amountGive",
          "type": "uint256"
        },
        {
          "internalType": "uint256",
          "name": "timestamp",
          "type": "uint256"
        }
      ],
      "stateMutability": "view",
      "type": "function",
      "constant": true
    },
    {
      "inputs": [
        {
          "internalType": "address",
          "name": "",
          "type": "address"
        },
        {
          "internalType": "address",
          "name": "",
          "type": "address"
        }
      ],
      "name": "tokens",
      "outputs": [
        {
          "internalType": "uint256",
          "name": "",
          "type": "uint256"
        }
      ],
      "stateMutability": "view",
      "type": "function",
      "constant": true
    },
    {
      "inputs": [],
      "name": "depositEther",
      "outputs": [],
      "stateMutability": "payable",
      "type": "function",
      "payable": true
    },
    {
      "inputs": [
        {
          "internalType": "address",
          "name": "_token",
          "type": "address"
        },
        {
          "internalType": "uint256",
          "name": "_amount",
          "type": "uint256"
        }
      ],
      "name": "depositToken",
      "outputs": [],
      "stateMutability": "nonpayable",
      "type": "function"
    },
    {
      "inputs": [
        {
          "internalType": "uint256",
          "name": "_amount",
          "type": "uint256"
        }
      ],
      "name": "withdrawEther",
      "outputs": [],
      "stateMutability": "nonpayable",
      "type": "function"
    },
    {
      "inputs": [
        {
          "internalType": "address",
          "name": "_token",
          "type": "address"
        },
        {
          "internalType": "uint256",
          "name": "_amount",
          "type": "uint256"
        }
      ],
      "name": "withdrawToken",
      "outputs": [],
      "stateMutability": "nonpayable",
      "type": "function"
    },
    {
      "inputs": [
        {
          "internalType": "address",
          "name": "_token",
          "type": "address"
        },
        {
          "internalType": "address",
          "name": "_user",
          "type": "address"
        }
      ],
      "name": "balanceOf",
      "outputs": [
        {
          "internalType": "uint256",
          "name": "",
          "type": "uint256"
        }
      ],
      "stateMutability": "view",
      "type": "function",
      "constant": true
    },
    {
      "inputs": [
        {
          "internalType": "address",
          "name": "_tokenGet",
          "type": "address"
        },
        {
          "internalType": "uint256",
          "name": "_amountGet",
          "type": "uint256"
        },
        {
          "internalType": "address",
          "name": "_tokenGive",
          "type": "address"
        },
        {
          "internalType": "uint256",
          "name": "_amountGive",
          "type": "uint256"
        }
      ],
      "name": "makeOrder",
      "outputs": [],
      "stateMutability": "nonpayable",
      "type": "function"
    },
    {
      "inputs": [
        {
          "internalType": "uint256",
          "name": "_id",
          "type": "uint256"
        }
      ],
      "name": "cancelOrder",
      "outputs": [],
      "stateMutability": "nonpayable",
      "type": "function"
    },
    {
      "inputs": [
        {
          "internalType": "uint256",
          "name": "_id",
          "type": "uint256"
        }
      ],
      "name": "fillOrder",
      "outputs": [],
      "stateMutability": "nonpayable",
      "type": "function"
    }
  ],
  "bytecode": "0x60806040523480156200001157600080fd5b506040516200275d3803806200275d83398181016040528101906200003791906200012b565b816000806101000a81548173ffffffffffffffffffffffffffffffffffffffff021916908373ffffffffffffffffffffffffffffffffffffffff16021790555080600181905550505062000172565b600080fd5b600073ffffffffffffffffffffffffffffffffffffffff82169050919050565b6000620000b8826200008b565b9050919050565b620000ca81620000ab565b8114620000d657600080fd5b50565b600081519050620000ea81620000bf565b92915050565b6000819050919050565b6200010581620000f0565b81146200011157600080fd5b50565b6000815190506200012581620000fa565b92915050565b6000806040838503121562000145576200014462000086565b5b60006200015585828601620000d9565b9250506020620001688582860162000114565b9150509250929050565b6125db80620001826000396000f3fe608060405260043610610105576000357c0100000000000000000000000000000000000000000000000000000000900480637fd6f15c116100a75780639e281a98116100765780639e281a98146102dc578063a85c38ef14610305578063c348ac6514610348578063f7888aec1461038557610105565b80637fd6f15c1461024157806398ea5fca1461026c5780639a5c90aa146102765780639bc896f91461029f57610105565b8063508493bc116100e3578063508493bc14610187578063514fcac7146101c457806365e17c9d146101ed57806367b830ad1461021857610105565b80632453ffa81461010a578063338b5dea146101355780633bed33ce1461015e575b600080fd5b34801561011657600080fd5b5061011f6103c2565b60405161012c9190611efa565b60405180910390f35b34801561014157600080fd5b5061015c60048036038101906101579190611fa4565b6103c8565b005b34801561016a57600080fd5b5061018560048036038101906101809190611fe4565b610672565b005b34801561019357600080fd5b506101ae60048036038101906101a99190612011565b61090e565b6040516101bb9190611efa565b60405180910390f35b3480156101d057600080fd5b506101eb60048036038101906101e69190611fe4565b610933565b005b3480156101f957600080fd5b50610202610b16565b60405161020f9190612060565b60405180910390f35b34801561022457600080fd5b5061023f600480360381019061023a9190611fe4565b610b3a565b005b34801561024d57600080fd5b50610256611471565b6040516102639190611efa565b60405180910390f35b610274611477565b005b34801561028257600080fd5b5061029d6004803603810190610298919061207b565b611642565b005b3480156102ab57600080fd5b506102c660048036038101906102c19190611fe4565b6118be565b6040516102d391906120fd565b60405180910390f35b3480156102e857600080fd5b5061030360048036038101906102fe9190611fa4565b6118de565b005b34801561031157600080fd5b5061032c60048036038101906103279190611fe4565b611c0f565b60405161033f9796959493929190612118565b60405180910390f35b34801561035457600080fd5b5061036f600480360381019061036a9190611fe4565b611cb1565b60405161037c91906120fd565b60405180910390f35b34801561039157600080fd5b506103ac60048036038101906103a79190612011565b611cd1565b6040516103b99190611efa565b60405180910390f35b60065481565b600073ffffffffffffffffffffffffffffffffffffffff168273ffffffffffffffffffffffffffffffffffffffff160361040157600080fd5b8173ffffffffffffffffffffffffffffffffffffffff166323b872dd3330846040518463ffffffff167c010000000000000000000000000000000000000000000000000000000002815260040161045a93929190612187565b6020604051808303816000875af1158015610479573d6000803e3d6000fd5b505050506040513d601f19601f8201168201806040525081019061049d91906121ea565b6104a657600080fd5b61053581600260008573ffffffffffffffffffffffffffffffffffffffff1673ffffffffffffffffffffffffffffffffffffffff16815260200190815260200160002060003373ffffffffffffffffffffffffffffffffffffffff1673ffffffffffffffffffffffffffffffffffffffff16815260200190815260200160002054611d5890919063ffffffff16565b600260008473ffffffffffffffffffffffffffffffffffffffff1673ffffffffffffffffffffffffffffffffffffffff16815260200190815260200160002060003373ffffffffffffffffffffffffffffffffffffffff1673ffffffffffffffffffffffffffffffffffffffff168152602001908152602001600020819055507fdcbc1c05240f31ff3ad067ef1ee35ce4997762752e3a095284754544f4c709d7823383600260008773ffffffffffffffffffffffffffffffffffffffff1673ffffffffffffffffffffffffffffffffffffffff16815260200190815260200160002060003373ffffffffffffffffffffffffffffffffffffffff1673ffffffffffffffffffffffffffffffffffffffff168152602001908152602001600020546040516106669493929190612217565b60405180910390a15050565b600260008073ffffffffffffffffffffffffffffffffffffffff1673ffffffffffffffffffffffffffffffffffffffff16815260200190815260200160002060003373ffffffffffffffffffffffffffffffffffffffff1673ffffffffffffffffffffffffffffffffffffffff168152602001908152602001600020548111156106fb57600080fd5b61078a81600260008073ffffffffffffffffffffffffffffffffffffffff1673ffffffffffffffffffffffffffffffffffffffff16815260200190815260200160002060003373ffffffffffffffffffffffffffffffffffffffff1673ffffffffffffffffffffffffffffffffffffffff16815260200190815260200160002054611db690919063ffffffff16565b600260008073ffffffffffffffffffffffffffffffffffffffff1673ffffffffffffffffffffffffffffffffffffffff16815260200190815260200160002060003373ffffffffffffffffffffffffffffffffffffffff1673ffffffffffffffffffffffffffffffffffffffff168152602001908152602001600020819055503373ffffffffffffffffffffffffffffffffffffffff166108fc829081150290604051600060405180830381858888f19350505050158015610850573d6000803e3d6000fd5b507ff341246adaac6f497bc2a656f546ab9e182111d630394f0c57c710a59a2cb56760003383600260008073ffffffffffffffffffffffffffffffffffffffff1673ffffffffffffffffffffffffffffffffffffffff16815260200190815260200160002060003373ffffffffffffffffffffffffffffffffffffffff1673ffffffffffffffffffffffffffffffffffffffff168152602001908152602001600020546040516109039493929190612217565b60405180910390a150565b6002602052816000526040600020602052806000526040600020600091509150505481565b6000600360008381526020019081526020016000206040518060e0016040529081600082015481526020016001820160009054906101000a900473ffffffffffffffffffffffffffffffffffffffff1673ffffffffffffffffffffffffffffffffffffffff1673ffffffffffffffffffffffffffffffffffffffff1681526020016002820160009054906101000a900473ffffffffffffffffffffffffffffffffffffffff1673ffffffffffffffffffffffffffffffffffffffff1673ffffffffffffffffffffffffffffffffffffffff168152602001600382015481526020016004820160009054906101000a900473ffffffffffffffffffffffffffffffffffffffff1673ffffffffffffffffffffffffffffffffffffffff1673ffffffffffffffffffffffffffffffffffffffff16815260200160058201548152602001600682015481525050905081816000015114610a8f57600080fd5b60016004600084815260200190815260200160002060006101000a81548160ff0219169083151502179055507f77de1da0be5f2d3b110d05c6694e5c4ff2d9da7cd23d84353ecf78c7b5acec618160000151338360400151846060015185608001518660a0015142604051610b0a9796959493929190612118565b60405180910390a15050565b60008054906101000a900473ffffffffffffffffffffffffffffffffffffffff1681565b6000600360008381526020019081526020016000206040518060e0016040529081600082015481526020016001820160009054906101000a900473ffffffffffffffffffffffffffffffffffffffff1673ffffffffffffffffffffffffffffffffffffffff1673ffffffffffffffffffffffffffffffffffffffff1681526020016002820160009054906101000a900473ffffffffffffffffffffffffffffffffffffffff1673ffffffffffffffffffffffffffffffffffffffff1673ffffffffffffffffffffffffffffffffffffffff168152602001600382015481526020016004820160009054906101000a900473ffffffffffffffffffffffffffffffffffffffff1673ffffffffffffffffffffffffffffffffffffffff1673ffffffffffffffffffffffffffffffffffffffff16815260200160058201548152602001600682015481525050905081816000015114610c9657600080fd5b6000610cc46064610cb66001548560600151611e0f90919063ffffffff16565b611e8990919063ffffffff16565b90508160a0015160026000846080015173ffffffffffffffffffffffffffffffffffffffff1673ffffffffffffffffffffffffffffffffffffffff1681526020019081526020016000206000846020015173ffffffffffffffffffffffffffffffffffffffff1673ffffffffffffffffffffffffffffffffffffffff168152602001908152602001600020541015610d5b57600080fd5b610d72818360600151611d5890919063ffffffff16565b60026000846040015173ffffffffffffffffffffffffffffffffffffffff1673ffffffffffffffffffffffffffffffffffffffff16815260200190815260200160002060003373ffffffffffffffffffffffffffffffffffffffff1673ffffffffffffffffffffffffffffffffffffffff168152602001908152602001600020541015610dfe57600080fd5b610eb28160026000856040015173ffffffffffffffffffffffffffffffffffffffff1673ffffffffffffffffffffffffffffffffffffffff16815260200190815260200160002060008060009054906101000a900473ffffffffffffffffffffffffffffffffffffffff1673ffffffffffffffffffffffffffffffffffffffff1673ffffffffffffffffffffffffffffffffffffffff16815260200190815260200160002054611d5890919063ffffffff16565b60026000846040015173ffffffffffffffffffffffffffffffffffffffff1673ffffffffffffffffffffffffffffffffffffffff16815260200190815260200160002060008060009054906101000a900473ffffffffffffffffffffffffffffffffffffffff1673ffffffffffffffffffffffffffffffffffffffff1673ffffffffffffffffffffffffffffffffffffffff16815260200190815260200160002081905550611000610f71828460600151611d5890919063ffffffff16565b60026000856040015173ffffffffffffffffffffffffffffffffffffffff1673ffffffffffffffffffffffffffffffffffffffff16815260200190815260200160002060003373ffffffffffffffffffffffffffffffffffffffff1673ffffffffffffffffffffffffffffffffffffffff16815260200190815260200160002054611db690919063ffffffff16565b60026000846040015173ffffffffffffffffffffffffffffffffffffffff1673ffffffffffffffffffffffffffffffffffffffff16815260200190815260200160002060003373ffffffffffffffffffffffffffffffffffffffff1673ffffffffffffffffffffffffffffffffffffffff1681526020019081526020016000208190555061111f826060015160026000856040015173ffffffffffffffffffffffffffffffffffffffff1673ffffffffffffffffffffffffffffffffffffffff1681526020019081526020016000206000856020015173ffffffffffffffffffffffffffffffffffffffff1673ffffffffffffffffffffffffffffffffffffffff16815260200190815260200160002054611d5890919063ffffffff16565b60026000846040015173ffffffffffffffffffffffffffffffffffffffff1673ffffffffffffffffffffffffffffffffffffffff1681526020019081526020016000206000846020015173ffffffffffffffffffffffffffffffffffffffff1673ffffffffffffffffffffffffffffffffffffffff1681526020019081526020016000208190555061123e8260a0015160026000856080015173ffffffffffffffffffffffffffffffffffffffff1673ffffffffffffffffffffffffffffffffffffffff16815260200190815260200160002060003373ffffffffffffffffffffffffffffffffffffffff1673ffffffffffffffffffffffffffffffffffffffff16815260200190815260200160002054611d5890919063ffffffff16565b60026000846080015173ffffffffffffffffffffffffffffffffffffffff1673ffffffffffffffffffffffffffffffffffffffff16815260200190815260200160002060003373ffffffffffffffffffffffffffffffffffffffff1673ffffffffffffffffffffffffffffffffffffffff1681526020019081526020016000208190555061135d8260a0015160026000856080015173ffffffffffffffffffffffffffffffffffffffff1673ffffffffffffffffffffffffffffffffffffffff1681526020019081526020016000206000856020015173ffffffffffffffffffffffffffffffffffffffff1673ffffffffffffffffffffffffffffffffffffffff16815260200190815260200160002054611db690919063ffffffff16565b60026000846080015173ffffffffffffffffffffffffffffffffffffffff1673ffffffffffffffffffffffffffffffffffffffff1681526020019081526020016000206000846020015173ffffffffffffffffffffffffffffffffffffffff1673ffffffffffffffffffffffffffffffffffffffff1681526020019081526020016000208190555060016005600085815260200190815260200160002060006101000a81548160ff0219169083151502179055507faba0fc968824c4949185cfdd55a197a4d41616a98cc2d97fd34224ebcdf76744826000015183602001518460400151856060015186608001518760a00151426040516114649796959493929190612118565b60405180910390a1505050565b60015481565b61150634600260008073ffffffffffffffffffffffffffffffffffffffff1673ffffffffffffffffffffffffffffffffffffffff16815260200190815260200160002060003373ffffffffffffffffffffffffffffffffffffffff1673ffffffffffffffffffffffffffffffffffffffff16815260200190815260200160002054611d5890919063ffffffff16565b600260008073ffffffffffffffffffffffffffffffffffffffff1673ffffffffffffffffffffffffffffffffffffffff16815260200190815260200160002060003373ffffffffffffffffffffffffffffffffffffffff1673ffffffffffffffffffffffffffffffffffffffff168152602001908152602001600020819055507fdcbc1c05240f31ff3ad067ef1ee35ce4997762752e3a095284754544f4c709d760003334600260008073ffffffffffffffffffffffffffffffffffffffff1673ffffffffffffffffffffffffffffffffffffffff16815260200190815260200160002060003373ffffffffffffffffffffffffffffffffffffffff1673ffffffffffffffffffffffffffffffffffffffff168152602001908152602001600020546040516116389493929190612217565b60405180910390a1565b80600260008473ffffffffffffffffffffffffffffffffffffffff1673ffffffffffffffffffffffffffffffffffffffff16815260200190815260200160002060003373ffffffffffffffffffffffffffffffffffffffff1673ffffffffffffffffffffffffffffffffffffffff1681526020019081526020016000205410156116cb57600080fd5b6116e16001600654611d5890919063ffffffff16565b6006819055506040518060e0016040528060065481526020013373ffffffffffffffffffffffffffffffffffffffff1681526020018573ffffffffffffffffffffffffffffffffffffffff1681526020018481526020018373ffffffffffffffffffffffffffffffffffffffff168152602001828152602001428152506003600060065481526020019081526020016000206000820151816000015560208201518160010160006101000a81548173ffffffffffffffffffffffffffffffffffffffff021916908373ffffffffffffffffffffffffffffffffffffffff16021790555060408201518160020160006101000a81548173ffffffffffffffffffffffffffffffffffffffff021916908373ffffffffffffffffffffffffffffffffffffffff1602179055506060820151816003015560808201518160040160006101000a81548173ffffffffffffffffffffffffffffffffffffffff021916908373ffffffffffffffffffffffffffffffffffffffff16021790555060a0820151816005015560c082015181600601559050507f9d33853d43e3607b4cc01fdc78338ff2dca6fef7db9232dae6d3eb55fbc3b1096006543386868686426040516118b09796959493929190612118565b60405180910390a150505050565b60046020528060005260406000206000915054906101000a900460ff1681565b600073ffffffffffffffffffffffffffffffffffffffff168273ffffffffffffffffffffffffffffffffffffffff160361191757600080fd5b600260008373ffffffffffffffffffffffffffffffffffffffff1673ffffffffffffffffffffffffffffffffffffffff16815260200190815260200160002060003373ffffffffffffffffffffffffffffffffffffffff1673ffffffffffffffffffffffffffffffffffffffff168152602001908152602001600020548111156119a057600080fd5b611a2f81600260008573ffffffffffffffffffffffffffffffffffffffff1673ffffffffffffffffffffffffffffffffffffffff16815260200190815260200160002060003373ffffffffffffffffffffffffffffffffffffffff1673ffffffffffffffffffffffffffffffffffffffff16815260200190815260200160002054611db690919063ffffffff16565b600260008473ffffffffffffffffffffffffffffffffffffffff1673ffffffffffffffffffffffffffffffffffffffff16815260200190815260200160002060003373ffffffffffffffffffffffffffffffffffffffff1673ffffffffffffffffffffffffffffffffffffffff168152602001908152602001600020819055508173ffffffffffffffffffffffffffffffffffffffff1663a9059cbb33836040518363ffffffff167c0100000000000000000000000000000000000000000000000000000000028152600401611b0692919061225c565b6020604051808303816000875af1158015611b25573d6000803e3d6000fd5b505050506040513d601f19601f82011682018060405250810190611b4991906121ea565b611b5257600080fd5b7ff341246adaac6f497bc2a656f546ab9e182111d630394f0c57c710a59a2cb567823383600260008773ffffffffffffffffffffffffffffffffffffffff1673ffffffffffffffffffffffffffffffffffffffff16815260200190815260200160002060003373ffffffffffffffffffffffffffffffffffffffff1673ffffffffffffffffffffffffffffffffffffffff16815260200190815260200160002054604051611c039493929190612217565b60405180910390a15050565b60036020528060005260406000206000915090508060000154908060010160009054906101000a900473ffffffffffffffffffffffffffffffffffffffff16908060020160009054906101000a900473ffffffffffffffffffffffffffffffffffffffff16908060030154908060040160009054906101000a900473ffffffffffffffffffffffffffffffffffffffff16908060050154908060060154905087565b60056020528060005260406000206000915054906101000a900460ff1681565b6000600260008473ffffffffffffffffffffffffffffffffffffffff1673ffffffffffffffffffffffffffffffffffffffff16815260200190815260200160002060008373ffffffffffffffffffffffffffffffffffffffff1673ffffffffffffffffffffffffffffffffffffffff16815260200190815260200160002054905092915050565b6000808284611d6791906122b4565b905083811015611dac576040517f08c379a0000000000000000000000000000000000000000000000000000000008152600401611da390612345565b60405180910390fd5b8091505092915050565b600082821115611dfb576040517f08c379a0000000000000000000000000000000000000000000000000000000008152600401611df2906123b1565b60405180910390fd5b8183611e0791906123d1565b905092915050565b6000808303611e215760009050611e83565b60008284611e2f9190612405565b9050828482611e3e9190612476565b14611e7e576040517f08c379a0000000000000000000000000000000000000000000000000000000008152600401611e7590612519565b60405180910390fd5b809150505b92915050565b6000808211611ecd576040517f08c379a0000000000000000000000000000000000000000000000000000000008152600401611ec490612585565b60405180910390fd5b8183611ed99190612476565b905092915050565b6000819050919050565b611ef481611ee1565b82525050565b6000602082019050611f0f6000830184611eeb565b92915050565b600080fd5b600073ffffffffffffffffffffffffffffffffffffffff82169050919050565b6000611f4582611f1a565b9050919050565b611f5581611f3a565b8114611f6057600080fd5b50565b600081359050611f7281611f4c565b92915050565b611f8181611ee1565b8114611f8c57600080fd5b50565b600081359050611f9e81611f78565b92915050565b60008060408385031215611fbb57611fba611f15565b5b6000611fc985828601611f63565b9250506020611fda85828601611f8f565b9150509250929050565b600060208284031215611ffa57611ff9611f15565b5b600061200884828501611f8f565b91505092915050565b6000806040838503121561202857612027611f15565b5b600061203685828601611f63565b925050602061204785828601611f63565b9150509250929050565b61205a81611f3a565b82525050565b60006020820190506120756000830184612051565b92915050565b6000806000806080858703121561209557612094611f15565b5b60006120a387828801611f63565b94505060206120b487828801611f8f565b93505060406120c587828801611f63565b92505060606120d687828801611f8f565b91505092959194509250565b60008115159050919050565b6120f7816120e2565b82525050565b600060208201905061211260008301846120ee565b92915050565b600060e08201905061212d600083018a611eeb565b61213a6020830189612051565b6121476040830188612051565b6121546060830187611eeb565b6121616080830186612051565b61216e60a0830185611eeb565b61217b60c0830184611eeb565b98975050505050505050565b600060608201905061219c6000830186612051565b6121a96020830185612051565b6121b66040830184611eeb565b949350505050565b6121c7816120e2565b81146121d257600080fd5b50565b6000815190506121e4816121be565b92915050565b600060208284031215612200576121ff611f15565b5b600061220e848285016121d5565b91505092915050565b600060808201905061222c6000830187612051565b6122396020830186612051565b6122466040830185611eeb565b6122536060830184611eeb565b95945050505050565b60006040820190506122716000830185612051565b61227e6020830184611eeb565b9392505050565b7f4e487b7100000000000000000000000000000000000000000000000000000000600052601160045260246000fd5b60006122bf82611ee1565b91506122ca83611ee1565b92508282019050808211156122e2576122e1612285565b5b92915050565b600082825260208201905092915050565b7f536166654d6174683a206164646974696f6e206f766572666c6f770000000000600082015250565b600061232f601b836122e8565b915061233a826122f9565b602082019050919050565b6000602082019050818103600083015261235e81612322565b9050919050565b7f536166654d6174683a207375627472616374696f6e206f766572666c6f770000600082015250565b600061239b601e836122e8565b91506123a682612365565b602082019050919050565b600060208201905081810360008301526123ca8161238e565b9050919050565b60006123dc82611ee1565b91506123e783611ee1565b92508282039050818111156123ff576123fe612285565b5b92915050565b600061241082611ee1565b915061241b83611ee1565b925082820261242981611ee1565b915082820484148315176124405761243f612285565b5b5092915050565b7f4e487b7100000000000000000000000000000000000000000000000000000000600052601260045260246000fd5b600061248182611ee1565b915061248c83611ee1565b92508261249c5761249b612447565b5b828204905092915050565b7f536166654d6174683a206d756c7469706c69636174696f6e206f766572666c6f60008201527f7700000000000000000000000000000000000000000000000000000000000000602082015250565b60006125036021836122e8565b915061250e826124a7565b604082019050919050565b60006020820190508181036000830152612532816124f6565b9050919050565b7f536166654d6174683a206469766973696f6e206279207a65726f000000000000600082015250565b600061256f601a836122e8565b915061257a82612539565b602082019050919050565b6000602082019050818103600083015261259e81612562565b905091905056fea2646970667358221220206d862a577fb45e5dbccbd0c79ee5fa36ca69cdd97dd51b97cc7649ec81629564736f6c63430008120033",
  "immutableReferences": {},
  "source": "//SPDX-License-Identifier:GPL-3.0\r\n// MIT...\r\npragma solidity >=0.4.16 <0.9.0; //solidity\r\nimport \"openzeppelin-solidity/contracts/math/SafeMath.sol\";\r\nimport \"./RbToken.sol\";\r\n\r\ncontract Exchange {\r\n    using SafeMath for uint256;\r\n    address public feeAccount;//\r\n    uint256 public feePercent;//\r\n    address constant ETHER = address(0);\r\n    mapping(address=>mapping(address=>uint256)) public tokens;//addrss address\r\n\r\n\r\n    //\r\n    struct _Order{\r\n        uint256 id;\r\n        address user;\r\n        address tokenGet;\r\n        uint256 amountGet;\r\n        address tokenGive;\r\n        uint256 amountGive;\r\n        uint256 timestamp;\r\n    }\r\n    // _Order[] public OrderList;\r\n    mapping(uint256=>_Order) public orders;\r\n    mapping(uint256=>bool) public orderCancel;\r\n    mapping(uint256=>bool) public orderFill;\r\n    uint256 public orderCount;\r\n    constructor(address _feeAccount,uint256 _feePercent){\r\n        feeAccount = _feeAccount;\r\n        feePercent = _feePercent;\r\n    }\r\n\r\n    event Deposit(address token,address user,uint256 amount,uint256 balance);\r\n    event Withdraw(address token,address user,uint256 amount,uint256 balance);\r\n    event Order(\r\n        uint256 id,\r\n        address user,\r\n        address tokenGet,\r\n        uint256 amountGet,\r\n        address tokenGive,\r\n        uint256 amountGive,\r\n        uint256 timestamp);\r\n        \r\n        event Cancel(\r\n        uint256 id,\r\n        address user,\r\n        address tokenGet,\r\n        uint256 amountGet,\r\n        address tokenGive,\r\n        uint256 amountGive,\r\n        uint256 timestamp);\r\n\r\n        event Trade(\r\n        uint256 id,\r\n        address user,\r\n        address tokenGet,\r\n        uint256 amountGet,\r\n        address tokenGive,\r\n        uint256 amountGive,\r\n        uint256 timestamp);\r\n\r\n    //\r\n    function depositEther()payable public{\r\n        tokens[ETHER][msg.sender] = tokens[ETHER][msg.sender].add(msg.value);\r\n        emit Deposit(ETHER,msg.sender,msg.value,tokens[ETHER][msg.sender]);\r\n    }\r\n\r\n    //\r\n    function depositToken(address _token,uint256 _amount)public{\r\n        require(_token != ETHER);\r\n        //\r\n        require(RbToken(_token).transferFrom(msg.sender,address(this),_amount));//address(this)\r\n        tokens[_token][msg.sender] = tokens[_token][msg.sender].add(_amount);\r\n        emit Deposit(_token,msg.sender,_amount,tokens[_token][msg.sender]);\r\n    }\r\n    //\r\n    function withdrawEther(uint256 _amount) public{\r\n        require(_amount <= tokens[ETHER][msg.sender]);\r\n        tokens[ETHER][msg.sender] = tokens[ETHER][msg.sender].sub(_amount);\r\n        payable(msg.sender).transfer(_amount);\r\n        emit Withdraw(ETHER,msg.sender,_amount,tokens[ETHER][msg.sender]);\r\n    } \r\n    //\r\n    function withdrawToken(address _token,uint256 _amount) public{\r\n        require(_token != ETHER);\r\n        require(_amount <= tokens[_token][msg.sender]);\r\n        \r\n        tokens[_token][msg.sender] = tokens[_token][msg.sender].sub(_amount);\r\n        \r\n        require(RbToken(_token).transfer(msg.sender,_amount));\r\n\r\n        emit Withdraw(_token,msg.sender,_amount,tokens[_token][msg.sender]);\r\n    }\r\n    //\r\n    function balanceOf(address _token,address _user) public view returns(uint256){\r\n        return tokens[_token][_user];\r\n    }\r\n\r\n    function makeOrder(address _tokenGet,uint256 _amountGet,address _tokenGive,uint256 _amountGive)public{\r\n        require(tokens[_tokenGive][msg.sender]>= _amountGive);\r\n        orderCount = orderCount.add(1);\r\n        orders[orderCount] = _Order(orderCount,msg.sender,_tokenGet,\r\n        _amountGet,_tokenGive,_amountGive,block.timestamp);\r\n        emit Order(orderCount,msg.sender,_tokenGet, _amountGet,_tokenGive,_amountGive,block.timestamp);\r\n    }\r\n\r\n    function cancelOrder(uint256 _id) public {\r\n        _Order memory myorder = orders[_id];\r\n        require(myorder.id == _id);\r\n        orderCancel[_id] = true;\r\n\r\n        emit Cancel(myorder.id,msg.sender,myorder.tokenGet,myorder.amountGet,myorder.tokenGive,myorder.amountGive,\r\n        block.timestamp);\r\n    }\r\n\r\n    function fillOrder(uint256 _id) public {\r\n        _Order memory myorder = orders[_id];\r\n        require(myorder.id == _id);\r\n        \r\n\r\n        uint256 feeAmout = myorder.amountGet.mul(feePercent).div(100);\r\n        // require(tokens[_tokenGive][msg.sender]>=_amountGive)\r\n        require(tokens[myorder.tokenGive][myorder.user]>= myorder.amountGive);\r\n        require(tokens[myorder.tokenGet][msg.sender]>= myorder.amountGet.add(feeAmout));\r\n\r\n        tokens[myorder.tokenGet][feeAccount] = tokens[myorder.tokenGet][feeAccount].add(feeAmout);\r\n\r\n        tokens[myorder.tokenGet][msg.sender] = tokens[myorder.tokenGet][msg.sender].sub(myorder.amountGet.add(feeAmout));\r\n        tokens[myorder.tokenGet][myorder.user] = tokens[myorder.tokenGet][myorder.user].add(myorder.amountGet);\r\n\r\n        tokens[myorder.tokenGive][msg.sender] = tokens[myorder.tokenGive][msg.sender].add(myorder.amountGive);\r\n        tokens[myorder.tokenGive][myorder.user] = tokens[myorder.tokenGive][myorder.user].sub(myorder.amountGive);\r\n\r\n        orderFill[_id] = true;\r\n        emit Trade(myorder.id,myorder.user,myorder.tokenGet,myorder.amountGet,myorder.tokenGive,myorder.amountGive,\r\n        block.timestamp);\r\n    }\r\n}\r\n",
  "sourcePath": "F:\\fe\\Web3.0+react\\myapp\\contracts\\Exchange.sol",
  "compiler": {
    "name": "solc",
    "version": "0.8.18+commit.87f61d96.Emscripten.clang"
  },
  "schemaVersion": "3.4.11",
  "updatedAt": "2023-03-18T02:43:33.427Z",
  "networkType": "ethereum",
  "devdoc": {
    "kind": "dev",
    "methods": {},
    "version": 1
  },
  "userdoc": {
    "kind": "user",
    "methods": {},
    "version": 1
  }
}