{
  "contractName": "StudentListStorage",
  "abi": [
    {
      "inputs": [
        {
          "internalType": "uint256",
          "name": "",
          "type": "uint256"
        }
      ],
      "name": "StudentList",
      "outputs": [
        {
          "internalType": "uint256",
          "name": "id",
          "type": "uint256"
        },
        {
          "internalType": "string",
          "name": "name",
          "type": "string"
        },
        {
          "internalType": "uint256",
          "name": "age",
          "type": "uint256"
        }
      ],
      "stateMutability": "view",
      "type": "function",
      "constant": true
    },
    {
      "inputs": [
        {
          "internalType": "uint256",
          "name": "_age",
          "type": "uint256"
        },
        {
          "internalType": "string",
          "name": "_name",
          "type": "string"
        }
      ],
      "name": "addList",
      "outputs": [
        {
          "internalType": "uint256",
          "name": "",
          "type": "uint256"
        }
      ],
      "stateMutability": "nonpayable",
      "type": "function"
    },
    {
      "inputs": [],
      "name": "getList",
      "outputs": [
        {
          "components": [
            {
              "internalType": "uint256",
              "name": "id",
              "type": "uint256"
            },
            {
              "internalType": "string",
              "name": "name",
              "type": "string"
            },
            {
              "internalType": "uint256",
              "name": "age",
              "type": "uint256"
            }
          ],
          "internalType": "struct StudentListStorage.Student[]",
          "name": "",
          "type": "tuple[]"
        }
      ],
      "stateMutability": "view",
      "type": "function",
      "constant": true
    }
  ],
  "bytecode": "0x608060405234801561001057600080fd5b50610b4c806100206000396000f3fe608060405234801561001057600080fd5b506004361061005e576000357c010000000000000000000000000000000000000000000000000000000090048063942b765a1461006357806395bbc64e14610081578063d342ae21146100b3575b600080fd5b61006b6100e3565b60405161007891906104fd565b60405180910390f35b61009b6004803603810190610096919061055f565b6101e8565b6040516100aa939291906105e5565b60405180910390f35b6100cd60048036038101906100c89190610758565b6102aa565b6040516100da91906107b4565b60405180910390f35b60606000805480602002602001604051908101604052809291908181526020016000905b828210156101df578382906000526020600020906003020160405180606001604052908160008201548152602001600182018054610144906107fe565b80601f0160208091040260200160405190810160405280929190818152602001828054610170906107fe565b80156101bd5780601f10610192576101008083540402835291602001916101bd565b820191906000526020600020905b8154815290600101906020018083116101a057829003601f168201915b5050505050815260200160028201548152505081526020019060010190610107565b50505050905090565b600081815481106101f857600080fd5b9060005260206000209060030201600091509050806000015490806001018054610221906107fe565b80601f016020809104026020016040519081016040528092919081815260200182805461024d906107fe565b801561029a5780601f1061026f5761010080835404028352916020019161029a565b820191906000526020600020905b81548152906001019060200180831161027d57829003601f168201915b5050505050908060020154905083565b6000806000805490509050600060405180606001604052806001846102cf919061085e565b81526020018581526020018681525090806001815401808255809150506001900390600052602060002090600302016000909190919091506000820151816000015560208201518160010190816103269190610a44565b5060408201518160020155505060008054905091505092915050565b600081519050919050565b600082825260208201905092915050565b6000819050602082019050919050565b6000819050919050565b6103818161036e565b82525050565b600081519050919050565b600082825260208201905092915050565b60005b838110156103c15780820151818401526020810190506103a6565b60008484015250505050565b6000601f19601f8301169050919050565b60006103e982610387565b6103f38185610392565b93506104038185602086016103a3565b61040c816103cd565b840191505092915050565b600060608301600083015161042f6000860182610378565b506020830151848203602086015261044782826103de565b915050604083015161045c6040860182610378565b508091505092915050565b60006104738383610417565b905092915050565b6000602082019050919050565b600061049382610342565b61049d818561034d565b9350836020820285016104af8561035e565b8060005b858110156104eb57848403895281516104cc8582610467565b94506104d78361047b565b925060208a019950506001810190506104b3565b50829750879550505050505092915050565b600060208201905081810360008301526105178184610488565b905092915050565b6000604051905090565b600080fd5b600080fd5b61053c8161036e565b811461054757600080fd5b50565b60008135905061055981610533565b92915050565b60006020828403121561057557610574610529565b5b60006105838482850161054a565b91505092915050565b6105958161036e565b82525050565b600082825260208201905092915050565b60006105b782610387565b6105c1818561059b565b93506105d18185602086016103a3565b6105da816103cd565b840191505092915050565b60006060820190506105fa600083018661058c565b818103602083015261060c81856105ac565b905061061b604083018461058c565b949350505050565b600080fd5b600080fd5b7f4e487b7100000000000000000000000000000000000000000000000000000000600052604160045260246000fd5b610665826103cd565b810181811067ffffffffffffffff821117156106845761068361062d565b5b80604052505050565b600061069761051f565b90506106a3828261065c565b919050565b600067ffffffffffffffff8211156106c3576106c261062d565b5b6106cc826103cd565b9050602081019050919050565b82818337600083830152505050565b60006106fb6106f6846106a8565b61068d565b90508281526020810184848401111561071757610716610628565b5b6107228482856106d9565b509392505050565b600082601f83011261073f5761073e610623565b5b813561074f8482602086016106e8565b91505092915050565b6000806040838503121561076f5761076e610529565b5b600061077d8582860161054a565b925050602083013567ffffffffffffffff81111561079e5761079d61052e565b5b6107aa8582860161072a565b9150509250929050565b60006020820190506107c9600083018461058c565b92915050565b7f4e487b7100000000000000000000000000000000000000000000000000000000600052602260045260246000fd5b6000600282049050600182168061081657607f821691505b602082108103610829576108286107cf565b5b50919050565b7f4e487b7100000000000000000000000000000000000000000000000000000000600052601160045260246000fd5b60006108698261036e565b91506108748361036e565b925082820190508082111561088c5761088b61082f565b5b92915050565b60008190508160005260206000209050919050565b60006020601f8301049050919050565b60008160020a8302905092915050565b6000600883026108f77fffffffffffffffffffffffffffffffffffffffffffffffffffffffffffffffff826108b7565b61090186836108b7565b95508019841693508086168417925050509392505050565b6000819050919050565b600061093e6109396109348461036e565b610919565b61036e565b9050919050565b6000819050919050565b61095883610923565b61096c61096482610945565b8484546108c7565b825550505050565b600090565b610981610974565b61098c81848461094f565b505050565b5b818110156109b0576109a5600082610979565b600181019050610992565b5050565b601f8211156109f5576109c681610892565b6109cf846108a7565b810160208510156109de578190505b6109f26109ea856108a7565b830182610991565b50505b505050565b60008160020a8304905092915050565b6000610a1b600019846008026109fa565b1980831691505092915050565b6000610a348383610a0a565b9150826002028217905092915050565b610a4d82610387565b67ffffffffffffffff811115610a6657610a6561062d565b5b610a7082546107fe565b610a7b8282856109b4565b600060209050601f831160018114610aae5760008415610a9c578287015190505b610aa68582610a28565b865550610b0e565b601f198416610abc86610892565b60005b82811015610ae457848901518255600182019150602085019450602081019050610abf565b86831015610b015784890151610afd601f891682610a0a565b8355505b6001600288020188555050505b50505050505056fea2646970667358221220cfba37ef61a8eb03d3ec17c4e5f2897453310475fe526f208fadd2846689a82764736f6c63430008120033",
  "immutableReferences": {},
  "source": "//SPDX-License-Identifier:GPL-3.0\r\n// MIT...\r\n\r\npragma solidity >=0.4.16 <0.9.0;//solidity\r\n\r\ncontract StudentListStorage{\r\n    struct Student{\r\n        uint id;\r\n        string name;\r\n        uint age;\r\n    }\r\n    Student[] public StudentList;\r\n\r\n    function addList(uint _age,string memory _name) public returns (uint){\r\n        uint count = StudentList.length;\r\n        StudentList.push(Student(count+1,_name,_age));\r\n        return StudentList.length;\r\n    }\r\n\r\n    function getList() public view returns(Student[] memory) {\r\n        return StudentList;\r\n    }\r\n}",
  "sourcePath": "F:\\fe\\Web3.0+react\\myapp\\contracts\\StudentListStorage.sol",
  "compiler": {
    "name": "solc",
    "version": "0.8.18+commit.87f61d96.Emscripten.clang"
  },
  "schemaVersion": "3.4.11",
  "updatedAt": "2023-03-18T02:43:32.955Z",
  "networkType": "ethereum",
  "devdoc": {
    "kind": "dev",
    "methods": {},
    "version": 1
  },
  "userdoc": {
    "kind": "user",
    "methods": {},
    "version": 1
  }
}